:060000000A128A11FC2F18
:100F3A004130831203139F00831603139F01080095
:100F4A000A128A119D270A128A1183120313860133
:100F5A0083160313860100300A128A11CB270A125C
:100F6A008A1100307102333003197002031CBE2F3C
:100F7A00BF2FC42FFF30831203138600B02F8312B2
:100F8A0003138601B02F0A128A110028F4000830D0
:100F9A007402031CD12FD22FD52FF001F101FB2FA0
:100FAA00C530831203139F057408F2000230031040
:100FBA00F20DFF3E031DDC2F0310720D9F040D304E
:100FCA00F300FB30F200F20BE82FF30BE82FED2FC2
:100FDA00831203139F149F18F32FF42FF02F1E0868
:100FEA00F200F3017208F0007308F10008008301AF
:060FFA000A128A11A52F66
:04400E00222FFF3F1F
:00000001FF
