:060000000A128A110C280F
:10000800FE00030EF2000A08F3000A128A117D2D81
:100018000A128A110F2883134830FD000530FE00AC
:100028000F30FF00203084000A128A1125260A1298
:100038008A11A0308400C0300A128A116E260A1272
:100048008A115B30840067300A128A116E260A1200
:100058008A11F701F801F90183010A128A11C329EB
:100068000A128A1147260A128A115F30F4004030BA
:10007800F5000A128A11E5240A128A117408750417
:10008800031D47284828612883120313CC01003038
:100098000A128A11B9240A128A1129308312031309
:1000A800CC000A128A119D250A128A11F7010A1238
:1000B8008A112D240A128A11CA280130F7078312DF
:1000C8000313CC0100300A128A11B9240A128A11CA
:1000D800373083120313CC000A128A119D250A12A5
:1000E8008A11033083120313D1008A30D0005530AF
:1000F800CF00CF0B7D28D00B7D28D10B7D280A128D
:100108008A1147260A128A1183120313CC01003080
:100118000A128A11B9240A128A117703031D952835
:100128009628A0281A3083120313CC000A128A11C9
:100138009D250A128A11C52802307706031DA528B5
:10014800A628B0280B3083120313CC000A128A1198
:100158009D250A128A11C52803307702031CB52889
:10016800B628C528513083120313CC000A128A110D
:100178009D250A128A110A128A115C250A128A110F
:10018800BF280A128A115C250A128A115F3083126D
:100198000313C8000030C900CA000830CB00003083
:1001A800CC000A128A11D8250A128A118312031365
:1001B800DD01043083120313D1008E30D0001130DA
:1001C800CF00CF0BE528D00BE528D10BE528EC288C
:1001D8000A128A1147260A128A1183120313CC01C4
:1001E80000300A128A11B9240A128A116330831264
:1001F8000313CC000A128A119D250A128A110800DD
:1002080083120313C800CA014808C900F030C905A1
:100218004808F60003300310F60DFF3E031D0F29B2
:100228000310760DCA00F030CA0509104908F60017
:1002380007300310F60CFF3E031D1D2976182529EB
:1002480029298312031385152C2983120313851179
:100258004908F60006300310F60CFF3E031D2F294F
:10026800761837293B298312031305153E29831273
:10027800031305114908F60005300310F60CFF3E7C
:10028800031D4129761849294D2983120313851422
:1002980050298312031385104908F600043003100F
:1002A800F60CFF3E031D532976185B295F2983123C
:1002B8000313051462298312031305100914091086
:1002C8000A30F4000030F5000A128A1157260A1283
:1002D8008A11831203134A08F60007300310F60C3C
:1002E800FF3E031D722976187A297E29831203138B
:1002F800851581298312031385114A08F6000630F3
:100308000310F60CFF3E031D842976188C299029CA
:1003180083120313051593298312031305114A0841
:10032800F60005300310F60CFF3E031D96297618DB
:100338009E29A229831203138514A5298312031366
:1003480085104A08F60004300310F60CFF3E031D22
:10035800A8297618B029B429831203130514B729DC
:10036800831203130510091409100A30F400003031
:10037800F5000A128A1157260A128A1108008316F4
:100388000317880189018316031389010130860048
:100398008312031389018316031381178B110B1022
:1003A8008312031389140915DE010A128A116526BE
:1003B8000A128A110A128A11ED220A128A1183126C
:1003C8000313CC0100300A128A11B9240A128A11C7
:1003D800443083120313CC000A128A119D250A1295
:1003E8008A11053083120313DA000F30D900F03078
:1003F800D800D80BFD29D90BFD29DA0BFD290000FF
:100408000A128A1147260A128A1183120313CC0191
:1004180000300A128A11B9240A128A116330831231
:100428000313CC000A128A119D250A128A110A1296
:100438008A115E220A128A110A128A1137250A12B3
:100448008A11003A0319292A2A2A1B2A23307906F5
:10045800031D2F2A302A362A0A128A1134200A123A
:100468008A111B2A2A307906031D3B2A3C2A422A74
:100478000A128A118C240A128A111B2A4130790621
:100488000319472A482A4E2A42307906031D4D2A65
:100498004E2A542A0A128A11F3250A128A111B2A93
:1004A80079080A128A11BC250A128A111B2A0A1213
:1004B8008A110C2883120313D401D5018312031364
:1004C80054083C3E8400831300098800D601D701F4
:1004D800831203135608383E840083130008080566
:1004E800031D772A782AAF2A5408C800033003105E
:1004F800C80DFF3E031D7B2AA0304807C9005608D7
:10050800CA004A074907CB004B0884000008CC0002
:10051800840A0008CD004C08013ECE004D0803189F
:10052800013E003ECF005408D00003300310D00D28
:10053800FF3E031D9A2AA0305007D1005608D2006A
:1005480052075107D300530884004E088000840ADC
:100558004F088000C42A5408C80003300310C80D8F
:10056800FF3E031DB22AA0304807C9005608CA003A
:100578004A074907CB004B0884008001840A8001A0
:100588000130D6070318D70A0030D7075708803A32
:10059800FF0080307F02031DD32A04305602031C5B
:1005A800D62AD72A6C2A013083120313D4070318DA
:1005B800D50A0030D5075508803AFF0080307F0201
:1005C800031DE82A04305402031CEB2AEC2A622A91
:1005D80008008316031309100512851285110511E9
:1005E8008510051083120313091005128512643053
:1005F800F4000030F5000A128A1157260A128A11EF
:1006080030300A128A1134260A128A110A128A1103
:100618005E240A128A1130300A128A1134260A120C
:100628008A110A128A115E240A128A1130300A12BB
:100638008A1134260A128A110A128A115E240A12B1
:100648008A1132300A128A1134260A128A110A12C1
:100658008A115E240A128A116430F4000030F50011
:100668000A128A1157260A128A1128300A128A1188
:1006780034260A128A110A128A115E240A128A1171
:100688000C300A128A1134260A128A110A128A11A7
:100698005E240A128A1106300A128A1134260A12B6
:1006A8008A110A128A115E240A128A1101300A126A
:1006B8008A1134260A128A11E830F4000330F50052
:1006C8000A128A1157260A128A11080003308A0072
:1006D8000408840A820700343F3406345B344F34FC
:1006E80066346D347D3407347F346F344E34483487
:1006F8004F342034503441345334533420344B3441
:100708004F342134213421340034433448344F34B5
:100718002034583449344E3420343534203443346A
:10072800483455344334003450344134533453340A
:10073800203443344F344E344E34453443345434E7
:100748002134003450344134533453342034573432
:1007580052344F344E344734213421340034483431
:1007680045344C344C344F342034443441344934C7
:1007780020344334413400344C344F3443344B3404
:100788004534443421342134213400342034203495
:100798002034203420342034203400345034413480
:1007A800533453343A342034003483120313CC01C5
:1007B80006300A128A11B9240A128A118312031305
:1007C800D00120300A128A110D260A128A1101302E
:1007D80083120313D00707305002031CF42BF52BA8
:1007E800E52BCC0106300A128A11B9240A128A11A3
:1007F800831203135E080319022C032C1A2CD1014F
:10080800132C51085F3E8400831300080A128A11D2
:100818000D260A128A11013083120313D1075D08CD
:100828005102031C182C192C052C2C2CCF01262C1A
:100838002A300A128A110D260A128A1101308312EF
:100848000313CF075D084F02031C2B2C2C2C1C2CE8
:1008580008008312031389108230F500DD30F4009C
:10086800F40B342CF50B342C392C83120313891414
:100878008230F500DD30F400F40B402CF50B402CF1
:10088800452C8312031389108230F500DD30F40003
:10089800F40B4C2CF50B4C2C512C8312031389149C
:1008A8008230F500DD30F400F40B582CF50B582C91
:1008B8005D2C080083160313851583120313851610
:1008C800051209140A30F4000030F5000A128A11E2
:1008D80057260A128A110030831203138519013032
:1008E800F600091009140A30F4000030F5000A1265
:1008F8008A1157260A128A118312031309107608DF
:10090800031D872C882C652C83160313851108007A
:100918005F3083120313C8000030C900CA000830D2
:10092800CB000030CC000A128A11D8250A128A118D
:1009380083120313DD01CC0106300A128A11B9248F
:100948000A128A115B3083120313CC000A128A112F
:100958009D250A128A1183120313CC0106300A124C
:100968008A11B9240A128A11080083120313CD00D0
:10097800C82CCE01D62C4030CE00D62C1430CE0058
:10098800D62C5430CE00D62C4C08003A0319BD2C76
:10099800013A0319BF2C033A0319C22C013A03196F
:1009A800C52CBD2C4D08CE074E0880380A128A1176
:1009B80034260A128A110A128A115E240A128A112E
:1009C8000800EA2C0130F4070130F50775088400A7
:1009D8008313000883120313C800740884000008F6
:1009E8004806031DF82CF92C002D74088400000813
:1009F800031DFF2C002DE62C750884000008C80094
:100A0800740884000008C90048084902F400F50188
:100A1800031CF5030800073408340934413404344E
:100A280005340634423401340234033443342A345E
:100A38000034233444340134023404340834103488
:100A480020344034803401340234043408341034FF
:100A58002034403480343734333435343534363404
:100A680030343834003483120313C8014808F400C2
:100A78007407A03E840083130008F500840A000868
:100A8800F60075037604031D4A2D4B2D522D480898
:100A9800203E84000008F90001305B2D0130C807B2
:100AA80010304802031C592D5A2D3A2D00300800E9
:100AB8008312031309110230F6000430F500BA302E
:100AC800F400F40B652DF50B652DF60B652D000074
:100AD8008312031309150230F6000430F500BA300A
:100AE800F400F40B752DF50B752DF60B752D000024
:100AF80008008B1D802D812D962D0B1C842D852D96
:100B0800962D8312031306080139F000F1017008CD
:100B1800DB007108DC005B035C04031D942D952D3C
:100B2800962D091573088A00720E8300FE0E7E0E3C
:100B38000900831203134C0884000A128A116A23DD
:100B48000A128A110A128A110D260A128A11013014
:100B580083120313CC074C0884000A128A116A23F3
:100B68000A128A11003A031DBA2DBB2D9D2D0800CB
:100B780083120313D20007305D02031CC42DC52D58
:100B8800C62DD72D5D085F3E840052088313800070
:100B98000130DD075D085F3E840080010A128A117A
:100BA800D9230A128A110800831203134808F40093
:100BB800E42D740884004908831380000130F40789
:100BC8000130CB020030031CCC03CC024B0A031DBE
:100BD800F12D4C0A031DF12DF22DDD2D08004130B9
:100BE8007906031DF82DF92DFE2D0130831203130C
:100BF800DE00072E42307906031D032E042E072E31
:100C080083120313DE010A128A11D9230A128A11E8
:100C1800080083120313CB000A128A115E240A12F9
:100C28008A11831203130516851209104B080A123C
:100C38008A1104210A128A1108007E088A007F0896
:100C480082000A128A1121260A128A118000840A57
:100C580004087D0603190034FF0A0319FE0A252E2D
:100C680083120313CB000A128A115E240A128A1116
:100C780083120313051285124B080A128A110421E4
:100C88000A128A1108000A128A115E240A128A11AD
:100C9800831203130512851201300A128A110421E6
:100CA8000A128A1108005E2E0130F4020030031C7B
:100CB800F503F50274087504031D632E642E582E7F
:100CC80008000F30831603138800F03083120313D3
:100CD8008800080064008001840A040603190034AF
:040CE80004066F2E61
:00000001FF
