:060000000A128A11DC2F38
:100E1A00013400347E088A007F0882000A128A118F
:100E2A000F270A128A118000840A04087D06031912
:100E3A000034FF0A0319FE0A132F831603178801C9
:100E4A008901831603138801870189100911073064
:100E5A0095000730860083120313860188018701F3
:100E6A0089018316031381130A128A117C270A1235
:100E7A008A11392F0A128A1100283F3400340634A5
:100E8A0000345B3400344F340034663400346D343B
:100E9A0000347D340034073400347F3400346F3436
:100EAA00003440340034793400342434003430348B
:100EBA0000341934003412340034023400347834E3
:100ECA000034003400341034003401340034023465
:100EDA00003404340034083400341034003420342C
:100EEA000034403400348034003400340034831237
:100EFA0003130618812F822FB22F1A30F700F83009
:100F0A00F600F60B862FF70B862F000083120313C9
:100F1A000618902F912FDB2F831203138914103098
:100F2A00F8003930F7000D30F600F60B9A2FF70B60
:100F3A009A2FF80B9A2FA12F8312031389101030BE
:100F4A00F8003930F7000D30F600F60BAA2FF70B30
:100F5A00AA2FF80BAA2FB12F912F8618B52FB62FCB
:100F6A00C72F1A30F700F830F600F60BBA2FF70B36
:100F7A00BA2F0000831203138618C42FC52FDB2F44
:100F8A000915DB2F0619CA2FCB2FDB2F1A30F700D2
:100F9A00F830F600F60BCF2FF70BCF2F0000831295
:100FAA0003130619D92FDA2FDB2F0911080083132F
:100FBA005A30FD000730FE004230FF002030840026
:100FCA000A128A1113270A128A110A128A110D2784
:100FDA000A128A11F9000A128A110E270A128A11B4
:100FEA00FA00F001F101F201F301F401F5018301C4
:060FFA000A128A11222FE9
:00000001FF
