:100000000A128A11EC2F00308A000408840A820741
:1000100000346B3468346F3461346E346734633465
:100020006134633468343A342034253475342034F0
:0800300063346D340A3400341E
:100A160008004130831203139F00831603139F01BE
:100A2600080064008001840A0406031900340406E1
:100A3600152DF000831203130C1E222D232D1D2DC0
:100A4600700899000800312D7108840000080A1208
:100A56008A111C250A128A110130F10771088400D7
:100A660083130008031D382D392D272D0800831602
:100A76000313071387171812831203139817831685
:100A860003178711831603131815193099001813C5
:100A960098168312031318160800323083120313B4
:100AA600B5003008B6000030B700B801B901BF0183
:100AB600C0013630AC000030AD003108AE00353034
:100AC600AF000A128A1173250A128A1183120313C0
:100AD60038083007B4003408840083138001080006
:100AE600831203132E08FD00872D831203132C088F
:100AF600A0002D08A1007D30A2002F08A3000A1235
:100B06008A1128270A128A117D0884000A128A117E
:100B160003200A128A11003A031D922D932D782D77
:100B260083120313AC01AD010800F400083074020F
:100B3600031C9E2D9F2DA22DF001F101C82DC5305D
:100B4600831203139F057408F20002300310F20D9E
:100B5600FF3E031DA92D0310720D9F040D30F300F7
:100B6600FB30F200F20BB52DF30BB52DBA2D831227
:100B760003139F149F18C02DC12DBD2D1E08F20012
:100B8600F3017208F0007308F100080070087104A0
:100B96000319CE2DCF2DFC2D0130F400DB2D0130B5
:100BA6000310F00DF10DFF3E031DD32D0130F407A8
:100BB600F11FDE2DDF2DD22D71087302031DE52DE9
:100BC60070087202031CE82DE92DEF2D7008F20261
:100BD6007108031CF303F30201300310F10CF00C4F
:100BE600FF3E031DF02D0130F402031DFB2DFC2DED
:100BF600DF2D7308F1007208F0000800F401F5011A
:100C0600700871040319082E092E3E2E0130F600D5
:100C1600152E01300310F00DF10DFF3E031D0D2EB4
:100C26000130F607F11F182E192E0C2E0130031075
:100C3600F40DF50DFF3E031D1A2E71087302031DF8
:100C4600262E70087202031C292E2A2E312E7008B9
:100C5600F2027108031CF303F3027414013003104B
:100C6600F10CF00CFF3E031D322E0130F602031D7F
:100C76003D2E3E2E192E7508F1007408F00008006E
:100C86000A128A110C250A128A110A128A113A25A9
:100C96000A128A118312031386018316031386012F
:100CA60000300A128A1198250A128A110030710240
:100CB600653003197002031C612E622E672EFF3009
:100CC6008312031386006A2E8312031386010030F3
:100CD6000A128A1198250A128A11710883120313BF
:100CE600D6007008D5004130B0000130B10056087A
:100CF600B3005508B2000A128A1150250A128A1149
:100D06004130F1000A128A1126250A128A11532E41
:100D16000A128A110028720873040319932E942E5E
:100D26009A2E72087304031D992E9A2EA12E70080E
:100D36000A128A110B250A128A11272F7208093EF8
:100D4600F40073080318013E003EF50074088400A1
:100D56008317751C83130008F600840A0008F70041
:100D6600760877040319B82EB92EEB2E7208093EC1
:100D7600F40073080318013E003EF5007408840071
:100D86008317751C83130008F600840A0008F70011
:100D96007208023EF80073080318013E003EF9008F
:100DA600780884008317791C83130008FA00840AE4
:100DB6000008FB007B08803AFC007708803A7C023A
:100DC600031DE72E76087A020318EA2EEB2E272F4C
:100DD600720884008317731C83130008F400840AC6
:100DE6000008F5007208023EF60073080318013E7B
:100DF600003EF700760884008317771C83130008EB
:100E06007407F9007508F8000318F80A801F0C2FFC
:100E1600F8037808FA007908840083177A1C83138C
:100E2600700880007208023EF40073080318013E41
:100E3600003EF500740884008317751C8313013087
:100E46008007840A0318800A080083120313220805
:100E56008400000884000A128A1103200A128A11EB
:100E6600253A031D372F382FD22F22088400013050
:100E76008007D701D8010030DB00FF30D900FF30F2
:100E8600DA00220884000008AA002A0884000A1250
:100E96008A1103200A128A11753A031D532F542F03
:100EA600CB2F2308840083130008A4000230800798
:100EB600240884000008A600840A0008A700220867
:100EC60084002A08013E8000C02F2030AB0001308C
:100ED600AB022B08A03E84000A30F0000030F1007F
:100EE6002708F3002608F2000A128A11C9250A12F9
:100EF6008A117008303E831380000A30F0000030FB
:100F0600F100831203132708F3002608F2000A12E1
:100F16008A1101260A128A11710883120313A70087
:100F26007008A6002608270403199A2F9B2FB92FAD
:100F36002B08031D9F2FA02F6A2FB92F2B08A03E29
:100F4600840083130008A400A5012408F0002508E6
:100F5600F1002008F2002108F3000A128A118E26F9
:100F66000A128A11013083120313AB0720302B06B5
:100F7600031DBE2FBF2FA12FEB2F2A0884000A12B4
:100F86008A1103200A128A11753A0319682FCB2F8A
:100F9600831203132208840001308007EB2F2208F6
:100FA6008400000884000A128A1103200A128A119A
:100FB600A400A5012408F0002508F1002008F2008D
:100FC6002108F3000A128A118E260A128A11CB2FE3
:100FD600080083120313D701D801D901DA01DB0116
:100FE6008313A0308400C0300A128A1114250A1215
:0A0FF6008A1183010A128A11432EAA
:04400E00222FFF3F1F
:00000001FF
