:100000000A128A11D12F00308A000408840A82075C
:1000100000343F3406345B344F3466346D347D3401
:1000200007347F346F34573465346C3463346F3441
:100030006D346534203445346D3462346534643451
:10004000643465346434003425346334203400343B
:0800500025346434203400342F
:10043200F70077080A128A11A1220A128A1108000B
:1004420064008001840A0406031900340406222A87
:100452000F30831603138800F030831203138800D1
:100462000800392A0130F0020030031CF103F102C6
:1004720070087104031D3E2A3F2A332A08005930AE
:1004820083120313DB00D4015808D5005B30D60079
:100492000A128A11E1220A128A1108000A128A112A
:1004A2004F230A128A118312031305128512013097
:1004B2000A128A1106260A128A1108000734083421
:1004C20009344134043405340634423401340234EC
:1004D200033443342A3400342334443401340234A0
:1004E200043408341034203440348034013402346B
:1004F200043408341034203440348034F6000A12B4
:100502008A114F230A128A118312031305128512CC
:1005120076080A128A1106260A128A110800F71BA7
:10052200932A942A952AA02A7609F8007709F900D5
:10053200F80A0319F90A7808F6007908F7000800A2
:10054200F6000A128A114F230A128A118312031328
:1005520005168512091076080A128A1106260A1251
:100562008A1108007E088A007F0882000A128A1116
:10057200B3220A128A118000840A04087D06031934
:100582000034FF0A0319FE0AB72A770884000A1208
:100592008A1103200A128A110A128A11A1220A124E
:1005A2008A110130F707770884000A128A110320A2
:1005B2000A128A11003A031DDF2AE02AC62A08001D
:1005C200831203135508D700F12A5408FB00573051
:1005D200FC005608FD000A128A11C3260A128A116B
:1005E20083120313570884000A128A1103200A1285
:1005F2008A11003A031DFE2AFF2AE62AD401D501F8
:100602000800F3017308F0007007203E8400831392
:100612000008F100840A0008F20071037204031D4D
:10062200132B142B1C2B7308C03E8400000883126A
:100632000313C500242B0130F30710307302031C8F
:10064200232B242B032B0800F800322BF901402B1B
:100652004030F900402B1430F900402B5430F9009F
:10066200402B7708003A0319272B013A0319292B4B
:10067200033A03192C2B013A03192F2B272B780845
:10068200F907790880380A128A117F220A128A1120
:100692000A128A114F230A128A11080083160313C1
:1006A2008515831203138516051209140A30F0000A
:1006B2000030F1000A128A1132220A128A11003025
:1006C2008312031385190130F200091009140A304C
:1006D200F0000030F1000A128A1132220A128A1145
:1006E2008312031309107208031D782B792B562BE2
:1006F2008316031385110800F501F31F812B822B4A
:10070200892BF209F309F20A0319F30A0130F50001
:10071200F11F8C2B8D2B922BF009F109F00A031992
:10072200F10A700871040319972B982BC52B01301D
:10073200F400A42B01300310F00DF10DFF3E031D58
:100742009C2B0130F407F11FA72BA82B9B2B7108C0
:100752007302031DAE2B70087202031CB12BB22B65
:10076200B82B7008F2027108031CF303F302013084
:100772000310F10CF00CFF3E031DB92B0130F40203
:10078200031DC42BC52BA82B75080319C92BCA2B13
:10079200CF2BF209F309F20A0319F30A7308F100E5
:1007A2007208F00008007A080319D82BD92BDE2B27
:1007B2007A08031DDD2BDE2BE52B78080A128A113D
:1007C20019220A128A112A2C7A08083E84008313FD
:1007D200000883120313C600840A0008C7004608F3
:1007E20047040319F52BF62B132C7A08083E8400D4
:1007F2000008C600840A0008C7007A0A84000008BC
:10080200C800840A0008C9004908803ACA0047089B
:10081200803A4A02031D0F2C460848020318122C84
:10082200132C2A2C7A0A84008313000883120313E0
:10083200C6007A08840000084607C70047088400FB
:10084200780880007A0A840001308007840A03183D
:10085200800A0800F501F11F2F2C302C372CF009EB
:10086200F109F00A0319F10A0130F500F31F3A2CDD
:100872003B2C422CF209F309F20A0319F30A013064
:10088200F506F601F701700871040319492C4A2C88
:100892007F2C0130F400562C01300310F00DF10DC5
:1008A200FF3E031D4E2C0130F407F11F592C5A2C28
:1008B2004D2C01300310F60DF70DFF3E031D5B2C8E
:1008C20071087302031D672C70087202031C6A2CE4
:1008D2006B2C722C7008F2027108031CF303F302F2
:1008E200761401300310F10CF00CFF3E031D732C43
:1008F2000130F402031D7E2C7F2C5A2C750803193B
:10090200832C842C892CF609F709F60A0319F70AB5
:100912007708F1007608F0000800831603178801B3
:1009220089010A128A1129220A128A110A128A11CB
:10093200FA240A128A11F70100300A128A112523B9
:100942000A128A110B30F7000A128A11C6220A1201
:100952008A11063083120313DE001330DD00AD303E
:10096200DC00DC0BB22CDD0BB22CDE0BB22C0A123B
:100972008A114F220A128A110A128A1177250A1243
:100982008A110A128A1102230A128A11F70100300F
:100992000A128A1125230A128A11E03083120313E4
:1009A2004507DC005F305C020318D82CD92CE82CF8
:1009B2001C30D8004508DC00DD015C08D9005D0868
:1009C200DA000A128A1140220A128A11BD2C203042
:1009D200D8004508DC00DD015C08D9005D08DA00BA
:1009E2000A128A1140220A128A11BD2C0A128A1195
:1009F20000288316031309100512851285110511AB
:100A02008510051083120313091005128512643034
:100A1200F0000030F1000A128A1132220A128A1101
:100A220030300A128A117F220A128A110A128A119E
:100A32004F230A128A1130300A128A117F220A12B7
:100A42008A110A128A114F230A128A1130300A12AD
:100A52008A117F220A128A110A128A114F230A125C
:100A62008A1132300A128A117F220A128A110A125C
:100A72008A114F230A128A116430F0000030F1000B
:100A82000A128A1132220A128A1128300A128A1193
:100A92007F220A128A110A128A114F230A128A111C
:100AA2000C300A128A117F220A128A110A128A1142
:100AB2004F230A128A1106300A128A117F220A1261
:100AC2008A110A128A114F230A128A1101300A125C
:100AD2008A117F220A128A11E830F0000330F100F5
:100AE2000A128A1132220A128A110800831203138F
:100AF200C601C7018312031346086B3E84008313A9
:100B020000098800C801C901831203134808673E1F
:100B12008400831300080805031D902D912DC82D14
:100B22004608F00003300310F00DFF3E031D942D24
:100B320020307007F1004808F20072077107F300D5
:100B4200730884000008F400840A0008F5007408A1
:100B5200013EF60075080318013E003EF700460804
:100B6200F80003300310F80DFF3E031DB32D2030B3
:100B72007807F9004808FA007A077907FB007B0832
:100B8200840076088000840A77088000DD2D4608FC
:100B9200F00003300310F00DFF3E031DCB2D20307B
:100BA2007007F1004808F20072077107F30073083A
:100BB20084008001840A80010130C8070318C90A31
:100BC2000030C9074908803AFF0080307F02031DC8
:100BD200EC2D04304802031CEF2DF02D852D013041
:100BE20083120313C6070318C70A0030C707470852
:100BF200803AFF0080307F02031D012E043046023E
:100C0200031C042E052E7B2D0800F300F50173084A
:100C1200F400F030F4057308F20003300310F20D13
:100C2200FF3E031D0F2E0310720DF500F030F50587
:100C32008312031309107408F20007300310F20C38
:100C4200FF3E031D1F2E7218272E2B2E8312031315
:100C520085152E2E8312031385117408F2000630B7
:100C62000310F20CFF3E031D312E7218392E3D2E59
:100C7200831203130515402E831203130511740802
:100C8200F20005300310F20CFF3E031D432E7218D2
:100C92004B2E4F2E831203138514522E83120313ED
:100CA20085107408F20004300310F20CFF3E031D9D
:100CB200552E72185D2E612E831203130514642EB5
:100CC200831203130510091409100A30F0000030D2
:100CD200F1000A128A1132220A128A117508F200F0
:100CE20007300310F20CFF3E031D722E72187A2E8B
:100CF2007E2E831203138515812E83120313851111
:100D02007508F20006300310F20CFF3E031D842E1C
:100D120072188C2E902E831203130515932E8312B4
:100D2200031305117508F20005300310F20CFF3EA3
:100D3200031D962E72189E2EA22E83120313851463
:100D4200A52E8312031385107508F20004300310D8
:100D5200F20CFF3E031DA82E7218B02EB42E831281
:100D620003130514B72E8312031305100914091077
:100D72000A30F0000030F1000A128A1132220A12FF
:100D82008A1108007C0884008313000884000A1278
:100D92008A1103200A128A11253A031DD12ED22E5E
:100DA200B72F7C0884000130800783120313C0012F
:100DB200C1010030C400FF30C200FF30C3007C0814
:100DC2008400000884000A128A1103200A128A1180
:100DD200633A031DED2EEE2E0B2F7C0884000130AA
:100DE20080077D0884000008FF00023080077F082A
:100DF20084000008D3005308CB00CC014B08F80054
:100E02004C08F9007B08FA000A128A11D4230A124C
:100E12008A11D02F7C0884000008CE004E0884007E
:100E22000A128A1103200A128A11643A03191A2F2C
:100E32001B2F272F4E0884000A128A1103200A1240
:100E42008A11693A031D262F272FB12F7D088400AE
:100E52000008FF00023080077F0884000008CF00EE
:100E6200840A0008D0007C0884004E08013E8000FD
:100E72002030D300D01B3E2F402F0130412F0030B5
:100E8200CD000130D3025308A03E84000A30F000A6
:100E92000030F1005008F3004F08F2000A128A11E4
:100EA2007D230A128A117108F7007008F6000A12EF
:100EB2008A1190220A128A117608303E831380002A
:100EC2000A30F0000030F100831203135008F300DF
:100ED2004F08F2000A128A112B240A128A11710891
:100EE20083120313D0007008CF004F085004031977
:100EF2007B2F7C2F812F5308031D802F812F422FA0
:100F020053080319852F862FAA2F4D0803198A2FFC
:100F12008B2FAA2F0130D3025308A03E84002D301C
:100F220083138000AA2F5308A03E84008313000875
:100F3200CB00CC014B08F8004C08F9007B08FA0002
:100F42000A128A11D4230A128A110130831203135E
:100F5200D30720305306031DAF2FB02F942FD02F6D
:100F62007C088400013083138007D02F7C08840022
:100F7200000884000A128A1103200A128A118312BD
:100F82000313CB00CC014B08F8004C08F9007B0896
:100F9200FA000A128A11D4230A128A11B12F080008
:100FA2008313D030FD000230FE005F30FF00C030FE
:100FB20084000A128A11B7220A128A116F30FD00C8
:100FC2000230FE006F30FF005F3084000A128A1187
:100FD200B7220A128A11A0308400C0300A128A1184
:100FE20021220A128A112030840046300A128A1104
:0E0FF20021220A128A1183010A128A118E2C02
:00000001FF
