:060000000A128A110C280F
:10000800FE00030EF6000A08F7000A128A11EB2810
:100018000A128A110F2883135A30FD000030FE009F
:10002800B130FF00203084000A128A113B210A12E5
:100038008A110A128A1152210A128A11F8000A1228
:100048008A1153210A128A11F900E101E201E30140
:10005800E401F001F101F201F30183010A128A11AE
:10006800162983120313DF01E001831203135F08CB
:10007800DA005A07483E8400831300080804880001
:10008800033083120313DC008A30DB005530DA00BA
:10009800DA0B4C28DB0B4C28DC0B4C28831203139F
:1000A8005F08DA005A07483E840083130008DB0023
:1000B800840A0008DC0080305B065C04031D6528A8
:1000C800662867287A280130DF070318E00A00301D
:1000D800E0076008803AFF0080307F02031D762821
:1000E8000A305F02031C79287A28392809308312DC
:1000F8000313DD000030DE005D08DA005A07483ED1
:100108008400831300098805033083120313DC007D
:100118008A30DB005530DA00DA0B9028DB0B9028A8
:10012800DC0B9028FF3083120313DD070318DE0A67
:10013800FF30DE07DE1FA128A228802806308312A0
:100148000313DC001330DB00AD30DA00DA0BAA2829
:10015800DB0BAA28DC0BAA2808003F34003406343D
:1001680000345B3400344F340034663400346D346A
:1001780000347D340034073400347F3400346F3465
:1001880000344034003479340034243400343034BA
:100198000034193400341234003402340034783412
:1001A8000034003400341034003401340034023494
:1001B800003404340034083400341034003420345B
:1001C80000344034003480340034003400348B1D53
:1001D800EE28EF280F290B1CF228F3280F29831289
:1001E800031306080639F400F5017408F0007508D1
:1001F800F100023070067104031D03290429062941
:1002080009110E29043070067104031D0C290D29EB
:100218000E2909150B1077088A00760E8300FE0E4A
:100228007E0E0900831603178801890183160313BC
:10023800880187018910091107308600831203138A
:100248008601FF308800870189010A128A114A2134
:100258000A128A110A128A1135200A128A112E29C5
:100268000A128A110C287E088A007F0882000A1266
:100278008A1137210A128A118000840A04087D062F
:1002880003190034FF0A0319FE0A3B290B108B15CA
:100298008B170730831603139600080001340034C7
:00000001FF
