:060000000A128A11FC2F18
:100F6800831203139101C730831603139200730889
:100F7800831203139500970173089B009D01831644
:100F880003138710071183120313870192011215A7
:100F98000800831603139F0188010F30831203137F
:100FA80088000A128A11B4270A128A1183160313B9
:100FB80086140910831203130914C830F3003C3057
:100FC80083120313880073089B000C309D000330C4
:100FD800F2008A30F1005530F000F00BF12FF10BE0
:100FE800F12FF20BF12FF82FE12F0A128A110028A6
:080FF80083010A128A11CD2FBA
:02400E00E23F8F
:00000001FF
