:060000000A128A11DE2F36
:100DE400FA344B34A0343C347D34FF308312031383
:100DF40088003C3095000C3097009B019D01080051
:100E0400831203139101E5308316031392008312B6
:100E14000313950197019B019D018316031387100A
:100E24000711831203138701920112150800831618
:100E3400031788018901831603139F0188010F306A
:100E44008312031388000A128A1102270A128A11D4
:100E5400FF30831603138600091083120313091449
:100E6400860183120313861C382F392F432F061D46
:100E74003C2F3D2F432F0A128A11F7260A128A119A
:100E8400332F861C462F472F542F061C4A2F4B2FD7
:100E9400542F023088007D3095000C3097009B0160
:100EA4009D01332F861D572F582F632F061D5B2F4F
:100EB4005C2F632F013088007D3095000C30970043
:100EC400512F061C662F672F6E2F02308800A0302A
:100ED40095000C309700512F861D712F722F792F9A
:100EE40001308800A03095000C309700512F061D6A
:100EF4007C2F7D2F842F013088004B3095000C30DF
:100F04009700512F861C872F882F892F7D2F061C31
:100F14008C2F8D2F9C2F861C902F912F9C2F061D7C
:100F2400942F952F9C2F023088004B3095000C3065
:100F34009700512F861D9F2FA02FA92F861CA32F0A
:100F4400A42FA92F061DA72FA82FA92F7D2F061C7C
:100F5400AC2FAD2FC02F861CB02FB12FC02F061D74
:100F6400B42FB52FC02F861DB82FB92FC02F013035
:100F740088003C3095000C309700512F061EC32F7B
:100F8400C42FCB2F02308800FA3095000C30970024
:100F9400512F861ECE2FCF2FD62F01308800FA3046
:100FA40095000C309700512F950197019B019D01ED
:100FB400332F0A128A1100280A128A11F2260A1201
:100FC4008A11F0000A128A11F3260A128A11F1001A
:100FD4000A128A11F4260A128A11F2000A128A11DC
:100FE400F5260A128A11F3000A128A11F6260A1249
:0C0FF4008A11F40083010A128A11192FDF
:04400E00222FFF3F1F
:00000001FF
