:060000000A128A11EA2F2A
:100E9A006E3428345A34FF30831203138800283002
:100EAA0095000C3097009B019D01080083120313E3
:100EBA009101C7308316031392008312031395011D
:100ECA0097019B019D018316031387100711831253
:100EDA00031387019201121508008316031788016C
:100EEA008901831603139F0188010F3083120313AC
:100EFA0088000A128A115B270A128A11FF308316A8
:100F0A00031386000910831203130914860183123E
:100F1A000313861C912F922F9C2F061D952F962F17
:100F2A009C2F0A128A1150270A128A118C2F861CAA
:100F3A009F2FA02FAD2F061CA32FA42FAD2F023059
:100F4A0088005A3095000C3097009B019D018C2F28
:100F5A00861DB02FB12FBC2F061DB42FB52FBC2F65
:100F6A00013088005A3095000C309700AA2F061CD1
:100F7A00BF2FC02FC72F023088006E3095000C306B
:100F8A009700AA2F861DCA2FCB2FD22F0130880097
:100F9A006E3095000C309700AA2F061DD52FD62F3C
:100FAA00DD2F01308800283095000C309700AA2FD9
:100FBA00861CE02FE12FE22FD62F950197019B0186
:100FCA009D018C2F0A128A1100280A128A114D27B4
:100FDA000A128A11F0000A128A114E270A128A117D
:100FEA00F1000A128A114F270A128A11F2008301AC
:060FFA000A128A11722F99
:04400E00222FFF3F1F
:00000001FF
