:060000000A128A11DC2F38
:100EE000013400347E088A007F0882000A128A11C9
:100EF00072270A128A118000840A04087D060319E9
:100F00000034FF0A0319FE0A762F3F3406345B349F
:100F10004F3466346D347D3407347F346F34C034DD
:100F2000F934A434B034993492348234F8348034AF
:100F30009034013402340434083410342034403402
:100F40008034831603139F018801870189100911DA
:100F50008601831203138601FF308800F901FA012C
:100F600079082A3E84008313000883120313880043
:100F70000D30F800AF30F700B630F600F60BBE2F9C
:100F8000F70BBE2FF80BBE2F00000130F907031836
:100F9000FA0A0030FA077A08803AFF0080307F02B0
:100FA000031DD42F0A307902031CD72FD82FB02F5E
:100FB000AE2F0A128A11002883133C30FD0007303F
:100FC000FE008530FF00203084000A128A11762747
:100FD0000A128A110A128A1170270A128A11FB005A
:100FE0000A128A1171270A128A11FC00F001F1011C
:100FF000F201F301F401F50183010A128A11A12F14
:02400E00F23F7F
:00000001FF
