:100000000A128A11D12F00308A000408840A82075C
:1000100000343F3406345B344F3466346D347D3401
:1000200007347F346F34573465346C3463346F3441
:100030006D346534203445346D3462346534643451
:10004000643465346434003425346334203400343B
:0800500025346434203400342F
:10043A00F70077080A128A11A5220A128A110800FF
:10044A0064008001840A0406031900340406262A7B
:10045A000F30831603138800F030831203138800C9
:10046A0008003D2A0130F0020030031CF103F102BA
:10047A0070087104031D422A432A372A080059309A
:10048A0083120313DB00D4015808D5005B30D60071
:10049A000A128A11E5220A128A1108000A128A111E
:1004AA0053230A128A11831203130512851201308B
:1004BA000A128A1106260A128A1108000734083419
:1004CA0009344134043405340634423401340234E4
:1004DA00033443342A340034233444340134023498
:1004EA000434083410342034403480340134023463
:1004FA00043408341034203440348034F6000A12AC
:10050A008A1153230A128A118312031305128512C0
:10051A0076080A128A1106260A128A110800F71B9F
:10052A00972A982A992AA42A7609F8007709F900BD
:10053A00F80A0319F90A7808F6007908F70008009A
:10054A00F6000A128A1153230A128A11831203131C
:10055A0005168512091076080A128A1106260A1249
:10056A008A1108007E088A007F0882000A128A110E
:10057A00B7220A128A118000840A04087D06031928
:10058A000034FF0A0319FE0ABB2A770884000A12FC
:10059A008A1103200A128A110A128A11A5220A1242
:1005AA008A110130F707770884000A128A1103209A
:1005BA000A128A11003A031DE32AE42ACA2A080009
:1005CA00831203135508D700F52A5408FB00573045
:1005DA00FC005608FD000A128A11C3260A128A1163
:1005EA0083120313570884000A128A1103200A127D
:1005FA008A11003A031D022B032BEA2AD401D501E2
:10060A000800F3017308F0007007203E840083138A
:10061A000008F100840A0008F20071037204031D45
:10062A00172B182B202B7308C03E84000008831256
:10063A000313C500282B0130F30710307302031C83
:10064A00272B282B072B0800F800362BF901442BFF
:10065A004030F900442B1430F900442B5430F9008F
:10066A00442B7708003A03192B2B013A03192D2B37
:10067A00033A0319302B013A0319332B2B2B780831
:10068A00F907790880380A128A1183220A128A1114
:10069A000A128A1153230A128A11080083160313B5
:1006AA008515831203138516051209140A30F00002
:1006BA000030F1000A128A1136220A128A11003019
:1006CA008312031385190130F200091009140A3044
:1006DA00F0000030F1000A128A1136220A128A1139
:1006EA008312031309107208031D7C2B7D2B5A2BCE
:1006FA008316031385110800F501F31F852B862B3A
:10070A008D2BF209F309F20A0319F30A0130F500F5
:10071A00F11F902B912B962BF009F109F00A03197E
:10072A00F10A7008710403199B2B9C2BC92B013009
:10073A00F400A82B01300310F00DF10DFF3E031D4C
:10074A00A02B0130F407F11FAB2BAC2B9F2B7108A8
:10075A007302031DB22B70087202031CB52BB62B51
:10076A00BC2B7008F2027108031CF303F302013078
:10077A000310F10CF00CFF3E031DBD2B0130F402F7
:10078A00031DC82BC92BAC2B75080319CD2BCE2BF7
:10079A00D32BF209F309F20A0319F30A7308F100D9
:1007AA007208F00008007A080319DC2BDD2BE22B13
:1007BA007A08031DE12BE22BE92B78080A128A1129
:1007CA001D220A128A112E2C7A08083E84008313ED
:1007DA00000883120313C600840A0008C7004608EB
:1007EA0047040319F92BFA2B172C7A08083E8400C0
:1007FA000008C600840A0008C7007A0A84000008B4
:10080A00C800840A0008C9004908803ACA00470893
:10081A00803A4A02031D132C460848020318162C74
:10082A00172C2E2C7A0A84008313000883120313D0
:10083A00C6007A08840000084607C70047088400F3
:10084A00780880007A0A840001308007840A031835
:10085A00800A0800F501F11F332C342C3B2CF009D7
:10086A00F109F00A0319F10A0130F500F31F3E2CD1
:10087A003F2C462CF209F309F20A0319F30A013054
:10088A00F506F601F7017008710403194D2C4E2C78
:10089A00832C0130F4005A2C01300310F00DF10DB5
:1008AA00FF3E031D522C0130F407F11F5D2C5E2C14
:1008BA00512C01300310F60DF70DFF3E031D5F2C7E
:1008CA0071087302031D6B2C70087202031C6E2CD4
:1008DA006F2C762C7008F2027108031CF303F302E2
:1008EA00761401300310F10CF00CFF3E031D772C37
:1008FA000130F402031D822C832C5E2C7508031927
:10090A00872C882C8D2CF609F709F60A0319F70AA1
:10091A007708F1007608F00008000A128A112D22E1
:10092A000A128A110A128A11FA240A128A11F70182
:10093A0000300A128A1129230A128A110B30F70091
:10094A000A128A11CA220A128A1106308312031362
:10095A00DE001330DD00AD30DC00DC0BB22CDD0B29
:10096A00B22CDE0BB22C0A128A1153220A128A11F5
:10097A000A128A1177250A128A110A128A11062383
:10098A000A128A11F70100300A128A1129230A125F
:10099A008A11E030831203134507DC005F305C02E2
:1009AA000318D82CD92CE82C1C30D8004508DC00B8
:1009BA00DD015C08D9005D08DA000A128A114422B6
:1009CA000A128A11BD2C2030D8004508DC00DD014E
:1009DA005C08D9005D08DA000A128A1144220A1258
:1009EA008A11BD2C0A128A110028831603130910D2
:1009FA00051285128511051185100510831203133E
:100A0A000910051285126430F0000030F1000A1254
:100A1A008A1136220A128A1130300A128A11832266
:100A2A000A128A110A128A1153230A128A113030C1
:100A3A000A128A1183220A128A110A128A1153236C
:100A4A000A128A1130300A128A1183220A128A1172
:100A5A000A128A1153230A128A1132300A128A118F
:100A6A0083220A128A110A128A1153230A128A113C
:100A7A006430F0000030F1000A128A1136220A129C
:100A8A008A1128300A128A1183220A128A110A123A
:100A9A008A1153230A128A110C300A128A118322EC
:100AAA000A128A110A128A1153230A128A1106306B
:100ABA000A128A1183220A128A110A128A115323EC
:100ACA000A128A1101300A128A1183220A128A1121
:100ADA00E830F0000330F1000A128A1136220A12B5
:100AEA008A11080083120313C601C7018312031374
:100AFA0046086B3E8400831300098800C801C901B7
:100B0A00831203134808673E84008313000808050C
:100B1A00031D902D912DC82D4608F00003300310B7
:100B2A00F00DFF3E031D942D20307007F100480898
:100B3A00F20072077107F300730884000008F400DA
:100B4A00840A0008F5007408013EF60075080318C7
:100B5A00013E003EF7004608F80003300310F80D86
:100B6A00FF3E031DB32D20307807F9004808FA002C
:100B7A007A077907FB007B08840076088000840ADC
:100B8A0077088000DD2D4608F00003300310F00DD1
:100B9A00FF3E031DCB2D20307007F1004808F200FC
:100BAA0072077107F300730884008001840A8001C8
:100BBA000130C8070318C90A0030C9074908803A32
:100BCA00FF0080307F02031DEC2D04304802031C15
:100BDA00EF2DF02D852D013083120313C60703185C
:100BEA00C70A0030C7074708803AFF0080307F02F3
:100BFA00031D012E04304602031C042E052E7B2DF4
:100C0A000800F300F5017308F400F030F4057308E6
:100C1A00F20003300310F20DFF3E031D0F2E0310E6
:100C2A00720DF500F030F5058312031309107408EC
:100C3A00F20007300310F20CFF3E031D1F2E72183C
:100C4A00272E2B2E8312031385152E2E83120313A0
:100C5A0085117408F20006300310F20CFF3E031DE2
:100C6A00312E7218392E3D2E831203130515402E8C
:100C7A008312031305117408F20005300310F20CF5
:100C8A00FF3E031D432E72184B2E4F2E8312031361
:100C9A008514522E8312031385107408F20004304F
:100CAA000310F20CFF3E031D552E72185D2E612EA5
:100CBA00831203130514642E8312031305100914F7
:100CCA0009100A30F0000030F1000A128A113622A7
:100CDA000A128A117508F20007300310F20CFF3E5F
:100CEA00031D722E72187A2E7E2E83120313851517
:100CFA00812E8312031385117508F2000630031042
:100D0A00F20CFF3E031D842E72188C2E902E831235
:100D1A0003130515932E8312031305117508F200A8
:100D2A0005300310F20CFF3E031D962E72189E2EFC
:100D3A00A22E831203138514A52E83120313851082
:100D4A007508F20004300310F20CFF3E031DA82EB2
:100D5A007218B02EB42E831203130514B72E831201
:100D6A0003130510091409100A30F0000030F100CD
:100D7A000A128A1136220A128A1108007C08840093
:100D8A008313000884000A128A1103200A128A11A6
:100D9A00253A031DD12ED22EB72F7C0884000130AC
:100DAA00800783120313C001C1010030C400FF3061
:100DBA00C200FF30C3007C088400000884000A12C5
:100DCA008A1103200A128A11633A031DED2EEE2EB0
:100DDA000B2F7C088400013080077D0884000008FE
:100DEA00CB00023080074B0884000008D300530868
:100DFA00CB00CC014B08F8004C08F9007B08FA003C
:100E0A000A128A11D8230A128A11D02F7C08840068
:100E1A000008CE004E0884000A128A1103200A1222
:100E2A008A11643A03191A2F1B2F272F4E088400A0
:100E3A000A128A1103200A128A11693A031D262FFF
:100E4A00272FB12F7D0884000008CB0002308007CD
:100E5A004B0884000008CF00840A0008D0007C08F0
:100E6A0084004E08013E80002030D300D01B3E2F64
:100E7A00402F0130412F0030CD000130D3025308FA
:100E8A00A03E84000A30F0000030F1005008F30060
:100E9A004F08F2000A128A1181230A128A11710874
:100EAA00F7007008F6000A128A1194220A128A11AF
:100EBA007608303E831380000A30F0000030F100DB
:100ECA00831203135008F3004F08F2000A128A1122
:100EDA002F240A128A11710883120313D000700892
:100EEA00CF004F08500403197B2F7C2F812F530802
:100EFA00031D802F812F422F53080319852F862F18
:100F0A00AA2F4D0803198A2F8B2FAA2F0130D3023B
:100F1A005308A03E84002D3083138000AA2F530863
:100F2A00A03E840083130008CB00CC014B08F800D4
:100F3A004C08F9007B08FA000A128A11D8230A120F
:100F4A008A11013083120313D30720305306031D7D
:100F5A00AF2FB02F942FD02F7C0884000130831339
:100F6A008007D02F7C088400000884000A128A11A6
:100F7A0003200A128A1183120313CB00CC014B08F7
:100F8A00F8004C08F9007B08FA000A128A11D823E3
:100F9A000A128A11B12F08008313D030FD000230E3
:100FAA00FE006330FF00C03084000A128A11BB229F
:100FBA000A128A116F30FD000230FE007330FF0002
:100FCA005F3084000A128A11BB220A128A11A030E9
:100FDA008400C0300A128A1125220A128A1120308E
:100FEA00840046300A128A1125220A128A118301C4
:060FFA000A128A11922C7C
:00000001FF
