:060000000A128A110C280F
:10000800FE00030EF2000A08F3000A128A112A29D8
:100018000A128A110F28F601F701F801F901831273
:100028000313A901AA0183010A128A119E28F60165
:10003800F70183120313861E222823282928063055
:10004800F6020030031CF703F702861E2C282D2821
:100058003728861D3028312837280430F60200302A
:10006800031CF703F702861D3A283B284128033072
:10007800F6020030031CF703F702061D4428452842
:100088004F28861D482849284F280230F60200309C
:10009800031CF703F702061D52285328592801307C
:1000A800F6020030031CF703F702861C5C285D2863
:1000B8006328061D602861286328F601F701861C5D
:1000C800662867286D280130F6070318F70A0030FC
:1000D800F707861C702871287B28061C7428752849
:1000E8007B280230F6070318F70A0030F707061CCA
:1000F8007E287F2885280330F6070318F70A003082
:10010800F707061E882889289328061C8C288D281E
:1001180093280430F6070318F70A0030F707061E7D
:10012800962897289D280630F6070318F70A003006
:10013800F70708008316031788018901FF30831623
:1001480003138600F0308800F83087008312031309
:100158008801FF300A128A116C210A128A1183124F
:100168000313881EB828B928BC28F9010130F80003
:10017800081EBF28C028C3280130F900F8017903F8
:10018800031DC728C828B3280D3083120313A800FD
:10019800AF30A700B530A600A60BD028A70BD028F3
:1001A800A80BD028D7280A128A111B200A128A11F4
:1001B8000A128A11E5200A128A11B3280A128A1132
:1001C8000C287708F5007608F4000A128A118321B2
:1001D8000A128A11740883120313A2007508A30077
:1001E800220EF039A40022082207A407A407240835
:1001F800963EA5002508A200A3012208F4002308C2
:10020800F5000A128A1155210A128A118312031362
:10021800A500F40125080A128A1196210A128A11EA
:1002280076087704031D19291A291F298312031335
:1002380088140814292976087704031924292529FC
:100248002929831203138814081008008B1D2D29EF
:100258002E294E290B1C312932294E2983120313CA
:100268000608C039F000F1017008A9007108AA0059
:10027800403029062A04031D42294329452909112A
:100288004D29043029062A04031D4B294C294D29E0
:1002980009150B1073088A00720E8300FE0E7E0E7D
:1002A80009007508803AFF0081307F02031D5E292E
:1002B80000307402031C612962296429FF306B290C
:1002C800F51F672968296A2900306B297408080016
:1002D800F40074088316031392000C30831203137E
:1002E8009D000C30970083160313871007118312A3
:1002F800031395019B019101043092000800F51B3E
:100308008629872988299529740983120313A0004F
:100318007509A100A00A0319A10A2008F400210800
:10032800F5000800F500750883120313950074089A
:040338009B0008001E
:04400E00222FFF3F1F
:00000001FF
