:060000000A128A110C280F
:10000800FE00030EF2000A08F3000A128A114C2AB5
:100018000A128A110F28F601F701F801F901831273
:100028000313AF01B001B101B201B301B4018301FF
:100038000A128A11FA28831203133408A10033081C
:10004800A0001430A2000030A3000A128A11252251
:100058000A128A11831203132108A8002008A70096
:1000680000303002073003192F02031C3C283D28BA
:100078006C283208803AFF0080307F02031D462832
:1000880001303102031C49284A285B28A03083121A
:100098000313A0000030A100A030A2000030A3008C
:1000A80009300A128A11B1220A128A11F928A030DD
:1000B80083120313A0000030A100A030A20000307A
:1000C800A30006300A128A11B1220A128A11F928ED
:1000D8008C30A50027082502A90028090318013E2D
:1000E800AA002708923EAB0028080318013E003EEC
:1000F800AC002A08F5002908F4000A128A117022B7
:100108000A128A1183120313A500A6012508A90063
:100118002608AA002C08F5002B08F4000A128A11F8
:1001280070220A128A1183120313A500A60125085A
:10013800AB002608AC003408F5003308F4000A12B6
:100148008A119E220A128A117508803AFF008030AF
:100158007F02031DB12802307402031CB428B5289D
:10016800EA28831203133408803AFF0080307F02A4
:10017800031DC02801303302031CC328C428D52816
:10018800831203132A08A1002908A0002C08A30041
:100198002B08A20009300A128A11B1220A128A1108
:1001A800F92883120313B41FDA28DB28F9282A0850
:1001B800A1002908A0002C08A3002B08A2000630E3
:1001C8000A128A11B1220A128A11F928831203131A
:1001D8002A08A1002908A0002C08A3002B08A200C7
:1001E8000A128A11C1220A128A11080083160317FB
:1001F80088018901FF30831603138600F0308800D8
:10020800F830870089018312031386018801FF30C3
:100218000A128A1187220A128A110A128A11D8220E
:100228000A128A11831203138901081E1C291D2929
:100238003B29823083120313AE00DD30AD00AD0BD5
:100248002329AE0B232983120313081E2C292D29D9
:100258007229F801F9010030A000A1000030A200C5
:10026800A3000A128A11C1220A128A117229081FD0
:100278003E293F295729823083120313AE00DD300F
:10028800AD00AD0B4529AE0B452983120313081F9A
:100298004E294F297229F8010130F900081B552908
:1002A800562952297229881E5A295B2972298230B7
:1002B80083120313AE00DD30AD00AD0B6129AE0B28
:1002C800612983120313881E6A296B297229013058
:1002D800F800F901881A712972296E297803031D1B
:1002E8007629772916297908031D7B297C2916295F
:1002F8000A128A11AD210A128A110A128A111F20C4
:100308000A128A1183120313081E8B298C297C294F
:10031800823083120313AE00DD30AD00AD0B92299D
:10032800AE0B922983120313081E9B299C297C2952
:10033800F801F9010030A000A1000030A200A300DC
:100348000A128A11C1220A128A1116290A128A115E
:100358000C28F401F50183120313861DB429B5296D
:10036800C029061DB829B929C029B301B401013033
:10037800F4000030F5000D2A861EC329C429CD29B2
:10038800FC30B300FF30B4000130F4000030F50059
:100398000D2A061CD029D129DA290430B3000030EF
:1003A800B4000130F4000030F5000D2A061EDD29E6
:1003B800DE29E729FE30B300FF30B4000130F40035
:1003C8000030F5000D2A861CEA29EB29F4290230B1
:1003D800B3000030B4000130F4000030F5000D2AFD
:1003E800861DF729F829012AFF30B300FF30B40031
:1003F8000130F4000030F5000D2A061D042A052AF4
:100408000D2A0130B3000030B4000130F400003090
:10041800F500740875040319122A132A1A2A3408D5
:10042800B2003308B100AF01B001242A3208B40089
:100438003108B3000130AF070318B00A0030B00725
:100448000800F401F50183120313201C2C2A2D2A1D
:10045800332A2208F4070318F50A2308F5070130A0
:100468000310A20DA30DFF3E031D342A0130031013
:10047800A10CA00CFF3E031D3B2A20082104031DEC
:10048800462A472A272A7508A1007408A0000800F0
:100498008B1D4F2A502A692A0B1C532A542A692A71
:1004A8008312031306084039F000F1017008F600C2
:1004B8007108F700403076067704031D642A652A20
:1004C800682AF801F90109140B1073088A00720EE2
:1004D8008300FE0E7E0E09007508803AFF00813009
:1004E8007F02031D792A00307402031C7C2A7D2AAE
:1004F8007F2AFF30862AF51F822A832A852A003020
:10050800862A74080800F4007408831603139200FE
:100518000C30831203139D000C30970083160313CD
:10052800871007118312031395019B019101043071
:1005380092000800F51BA12AA22AA32AB02A74094E
:1005480083120313A0007509A100A00A0319A10AC8
:100558002008F4002108F500080083120313A40002
:10056800F0308805240888042208F40020080A12BC
:100578008A11D0220A128A110800F030831203135C
:100588008805053088042208F40020080A128A1118
:10059800D0220A128A110800F50075088312031385
:1005A800950074089B0008000B108B158B170730FB
:0805B8008316031396000800EE
:04400E00222FFF3F1F
:00000001FF
