:060000000A128A110C280F
:10000800FE00030EF2000A08F3000A128A11992D65
:100018000A128A110F28F601F701F801F901831273
:100028000313C701C801C901CA01CB01CC0183016F
:100038000A128A111A2B8312031349084B02A700CC
:100048004A08031C4A0A4C02A800013048022D3015
:1000580003194702031C3128322861284A08803ACC
:10006800FF0080307F02031D3B2801304902031C3A
:100078003E283F285028C83083120313A0000030C0
:10008800A100C830A2000030A30006300A128A116D
:1000980007260A128A11192BC83083120313A000ED
:1000A8000030A100C830A2000030A30009300A12B5
:1000B8008A1107260A128A11192B4C08F5004B08D9
:1000C800F4000A128A11F4250A128A117508803A76
:1000D800FF0080307F02031D73280230740203186A
:1000E800762877288628823083120313BD000030D3
:1000F800BE001730B9000030BA000A30BB0000302B
:10010800BC002729831203134C08F5004B08F400A0
:100118000A128A11F4250A128A1107307406750426
:10012800031D97289828A7281E3083120313BD00A3
:100138000030BE001A30B9000030BA000F30BB00E2
:100148000030BC002729831203134C08F5004B0824
:10015800F4000A128A11F4250A128A110230740670
:100168007504031DB828B928C828693083120313F9
:10017800BD000030BE001730B9000030BA000C30A6
:10018800BB000030BC002729831203134C08F5007C
:100198004B08F4000A128A11F4250A128A11033056
:1001A80074067504031DD928DA28E928503083120B
:1001B8000313BD000030BE001B30B9000030BA0088
:1001C8000F30BB000030BC002729831203134C08F2
:1001D800F5004B08F4000A128A11F4250A128A1154
:1001E8007508803AFF0080307F02031DFD28043027
:1001F8007402031C002901292729831203134C08C0
:10020800F5004B08F4000A128A11F4250A128A1123
:100218007508803AFF0080307F02031D15290630DB
:100228007402031818291929272937308312031350
:10023800BD000030BE001D30B9000030BA001030DB
:10024800BB000030BC00831203133A08A100390830
:10025800A0004C08A3004B08A2000A128A117225BC
:100268000A128A11831203132008A5002108A60088
:100278003C08A1003B08A0002808A3002708A2000A
:100288000A128A1172250A128A118312031320088E
:100298002507BF0021080318210A2607C0003F08C8
:1002A8003D02C1004008031C400A3E02C2003F084C
:1002B8003D07A50040080318400A3E07A600250888
:1002C800063EC30026080318013E003EC40042084B
:1002D800F5004108F4000A128A11BD250A128A1194
:1002E80083120313A500A6012508C1002608C20031
:1002F8004408F5004308F4000A128A11BD250A12C1
:100308008A1183120313A500A6012508C300260835
:10031800C4004C08F5004B08F4000A128A11F425B1
:100328000A128A117508803AFF0080307F02031D87
:100338009F2902307402031CA229A3294A2A831286
:1003480003134C08F5004B08F4000A128A11F4252F
:100358000A128A117418B129B2294A2A831203137E
:100368004C08803AFF0080307F02031DBD29013010
:100378004B02031CC029C129062A83120313420811
:10038800803AFF0080307F02031DCC2932304102C1
:10039800031CCF29D029D729831203134208AA00A6
:1003A8004108A900DD29831203134008AA003F0869
:1003B800A9004408803AFF0080307F02031DE62927
:1003C8000A304302031CE929EA29F129831203139D
:1003D8004408AC004308AB00F72983120313400814
:1003E800AC003F08AB002C08A1002B08A0002A088D
:1003F800A3002908A20009300A128A1107260A1246
:100408008A114A2A831203134208803AFF00803077
:100418007F02031D112A32304102031C142A152AB7
:100428001C2A831203134208AE004108AD00222A99
:10043800831203134008AE003F08AD004408803A19
:10044800FF0080307F02031D2B2A0A304302031C61
:100458002E2A2F2A362A831203134408B000430891
:10046800AF003C2A831203134008B0003F08AF00D6
:100478003008A1002F08A0002E08A3002D08A20014
:1004880006300A128A1107260A128A1183120313E8
:100498004C08F5004B08F4000A128A11F4250A12D8
:1004A8008A117508803AFF0080307F02031D5E2A9A
:1004B80002307402031C612A622A0A2B8312031376
:1004C8004C08F5004B08F4000A128A11F4250A12A8
:1004D8008A11741C702A712A0A2B831203134C0880
:1004E800803AFF0080307F02031D7C2A01304B02D6
:1004F800031C7F2A802AC52A831203134208803AE4
:10050800FF0080307F02031D8B2A1E304102031C2E
:100518008E2A8F2A962A831203134208B2004108B2
:10052800B1009C2A831203134008B2003F08B100AF
:100538004408803AFF0080307F02031DA52A1E3040
:100548004302031CA82AA92AB02A831203134408C9
:10055800B4004308B300B62A831203134008B4005A
:100568003F08B3003408A1003308A0003208A300F4
:100578003108A20009300A128A1107260A128A11C4
:10058800192B831203134208803AFF0080307F0240
:10059800031DD02A1E304102031CD32AD42ADB2A89
:1005A800831203134208B6004108B500E12A8312FA
:1005B80003134008B6003F08B5004408803AFF001E
:1005C80080307F02031DEA2A1E304302031CED2AF5
:1005D800EE2AF52A831203134408B8004308B7002B
:1005E800FB2A831203134008B8003F08B7003808F5
:1005F800A1003708A0003608A3003508A20006307D
:100608000A128A1107260A128A11192B8312031358
:100618004208A1004108A0004408A3004308A20022
:100628000A128A1117260A128A110800831603175C
:1006380088018901FF30831603138600F030880093
:10064800F830870089018312031386018801FF307F
:100658000A128A11DD250A128A110A128A112E2617
:100668000A128A11831203138901081E3C2B3D2BA1
:100678005B2B823083120313C600DD30C500C50B27
:10068800432BC60B432B83120313081E4C2B4D2BF5
:100698008E2BF801F9010030A000A1000030A20063
:1006A800A3000A128A1117260A128A118E2B081F14
:1006B8005E2B5F2B732B823083120313C600DD3051
:1006C800C500C50B652BC60B652B83120313081FCA
:1006D8006E2B6F2B8E2BF8010130F9008E2B881EA4
:1006E800762B772B8E2B823083120313C600DD30D6
:1006F800C500C50B7D2BC60B7D2B83120313881EEB
:10070800862B872B8E2B0130F800F901881A8D2B48
:100718008E2B8A2B7803031D922B932B762C79082A
:10072800031D972B982B762C0A128A1184240A12FF
:100738008A110A128A111F200A128A1183120313BE
:10074800081EA72BA82B982B823083120313C600F0
:10075800DD30C500C50BAE2BC60BAE2B83120313C1
:10076800081EB72BB82B982BF801F9010030A00010
:10077800A1000030A200A3000A128A1117260A124B
:100788008A11762C83120313871DCB2BCC2BEB2BD2
:10079800823083120313C600DD30C500C50BD22B8F
:1007A800C60BD22B83120313871DDB2BDC2B762C75
:1007B8009630A0000030A1009630A2000030A300BF
:1007C80005300A128A1107260A128A11762C071E8A
:1007D800EE2BEF2B0E2C823083120313C600DD3074
:1007E800C500C50BF52BC60BF52B83120313071E8B
:1007F800FE2BFF2B762C9630A0000030A1009630FF
:10080800A2000030A3000A300A128A1107260A1231
:100818008A11762C871E112C122C312C82308312CF
:100828000313C600DD30C500C50B182CC60B182CE9
:1008380083120313871E212C222C762C9630A000BD
:100848000030A1009630A2000030A30009300A123F
:100858008A1107260A128A11762C071F342C352C88
:10086800542C823083120313C600DD30C500C50B3B
:100878003B2CC60B3B2C83120313071F442C452C1F
:10088800762C9630A0000030A1009630A2000030EF
:10089800A30006300A128A1107260A128A11762C3A
:1008A800081E572C582C762C823083120313C6004E
:1008B800DD30C500C50B5E2CC60B5E2C83120313FE
:1008C800081E672C682C762CF801F9010030A0006E
:1008D800A1000030A200A3000A128A1117260A12EA
:1008E8008A11362B7808031D7A2C7B2C362B79033A
:1008F80003197F2C802CC62B362B0A128A110C2840
:10090800F401F50183120313861D8B2C8C2C9D2C6E
:10091800061D8F2C902C9D2C081C932C942C9D2C00
:100928000730CB000030CC000130F4000030F50077
:100938005A2D861DA02CA12CB22C061DA42CA52C4A
:10094800B22C881EA82CA92CB22CF930CB00FF3071
:10095800CC000130F4000030F5005A2D861EB52C6D
:10096800B62CBF2CFB30CB00FF30CC000130F4009C
:100978000030F5005A2D061CC22CC32CCC2C053097
:10098800CB000030CC000130F4000030F5005A2DC7
:10099800061ECF2CD02CD92CFC30CB00FF30CC003D
:1009A8000130F4000030F5005A2D861CDC2CDD2CBB
:1009B800E62C0430CB000030CC000130F4000030CD
:1009C800F5005A2D061EE92CEA2CF72C861DED2C75
:1009D800EE2CF72CFE30CB00FF30CC000130F400B9
:1009E8000030F5005A2D061DFA2CFB2C082D861C0C
:1009F800FE2CFF2C082D0230CB000030CC0001303B
:100A0800F4000030F5005A2D861D0B2D0C2D152DE8
:100A1800FF30CB00FF30CC000130F4000030F5008F
:100A28005A2D061D182D192D222D0130CB0000300E
:100A3800CC000130F4000030F5005A2D061E252D9B
:100A4800262D372D861D292D2A2D372D061D2D2DB6
:100A58002E2D372DFD30CB00FF30CC000130F400B7
:100A68000030F5005A2D861C3A2D3B2D4C2D861D45
:100A78003E2D3F2D4C2D061D422D432D4C2D033070
:100A8800CB000030CC000130F4000030F5005A2DC6
:100A9800861D4F2D502D5A2D061D532D542D5A2D80
:100AA800CB01CC010130F4000030F5007408750466
:100AB80003195F2D602D672D4C08CA004B08C9002B
:100AC800C701C801712D4A08CC004908CB00013084
:100AD800C7070318C80A0030C8070800F401F50161
:100AE80083120313201C792D7A2D802D2208F407F8
:100AF8000318F50A2308F50701300310A20DA30D0A
:100B0800FF3E031D812D01300310A10CA00CFF3EF8
:100B1800031D882D20082104031D932D942D742D69
:100B28007508A1007408A00008008B1D9C2D9D2D40
:100B3800B62D0B1CA02DA12DB62D8312031306086C
:100B48004039F000F1017008F6007108F7004030F4
:100B580076067704031DB12DB22DB52DF801F901E4
:100B680009140B1073088A00720E8300FE0E7E0EA5
:100B780009007508803AFF0081307F02031DC62DE9
:100B880000307402031CC92DCA2DCC2DFF30DC2D7A
:100B98007508803AFF0080307F02031DD52D0A308A
:100BA80074020318D82DD92DDB2D0030DC2D7408E4
:100BB8000800F40074088316031392000C308312A3
:100BC80003139D000C309700831603138710071139
:100BD8008312031395019B019101043092000800D0
:100BE800F51BF72DF82DF92D062E74098312031322
:100BF800A0007509A100A00A0319A10A2008F400A1
:100C08002108F500080083120313A400F0308805BA
:100C1800240888042208F40020080A128A112626CB
:100C28000A128A110800F030831203138805053070
:100C380088042208F40020080A128A1126260A12BB
:100C48008A110800F50075088312031395007408CB
:100C58009B0008000B108B158B17073083160313A6
:040C680096000800EA
:04400E00222FFF3F1F
:00000001FF
