:060000000A128A110C280F
:10000800FE00030EF2000A08F3000A128A119F2D5F
:100018000A128A110F28F601F701F801F901831273
:100028000313C701C801C901CA01CB01CC01CD0125
:10003800CE01CF01D001D101D20183010A128A1168
:10004800202B8312031349085102A7004A08031CF6
:100058004A0A5202A800013048022D30031947020B
:10006800031C3728382867284A08803AFF00803060
:100078007F02031D412801304902031C44284528FA
:100088005628C83083120313A0000030A100C830DE
:10009800A2000030A30006300A128A110D260A12A7
:1000A8008A111F2BC83083120313A0000030A1004F
:1000B800C830A2000030A30009300A128A110D26A8
:1000C8000A128A111F2B5208F5005108F4000A126F
:1000D8008A11FA250A128A117508803AFF008030C1
:1000E8007F02031D79280230740203187C287D28BA
:1000F8008C28823083120313BD000030BE001730F5
:10010800B9000030BA000A30BB000030BC002D290D
:10011800831203135208F5005108F4000A128A11D9
:10012800FA250A128A11073074067504031D9D28E2
:100138009E28AD281E3083120313BD000030BE0078
:100148001A30B9000030BA000F30BB000030BC00D4
:100158002D29831203135208F5005108F4000A12DE
:100168008A11FA250A128A11023074067504031DD1
:10017800BE28BF28CE28693083120313BD00003083
:10018800BE001730B9000030BA000C30BB00003098
:10019800BC002D29831203135208F5005108F400FE
:1001A8000A128A11FA250A128A1103307406750494
:1001B800031DDF28E028EF28503083120313BD0009
:1001C8000030BE001B30B9000030BA000F30BB0051
:1001D8000030BC002D29831203135208F500510882
:1001E800F4000A128A11FA250A128A117508803A4F
:1001F800FF0080307F02031D032904307402031CB2
:10020800062907292D29831203135208F5005108DE
:10021800F4000A128A11FA250A128A117508803A1E
:10022800FF0080307F02031D1B290630740203186B
:100238001E291F292D29373083120313BD000030D2
:10024800BE001D30B9000030BA001030BB000030CD
:10025800BC00831203133A08A1003908A000520811
:10026800A3005108A2000A128A1178250A128A11DD
:10027800831203132008A5002108A6003C08A1004A
:100288003B08A0002808A3002708A2000A128A1128
:1002980078250A128A118312031320082507BF0044
:1002A80021080318210A2607C0003F083D02C100A3
:1002B8004008031C400A3E02C2003F083D07A50053
:1002C80040080318400A3E07A6002508063EC3005A
:1002D80026080318013E003EC4004208F500410804
:1002E800F4000A128A11C3250A128A118312031311
:1002F800A500A6012508C1002608C2004408F5008B
:100308004308F4000A128A11C3250A128A118312BB
:100318000313A500A6012508C3002608C400520837
:10032800F5005108F4000A128A11FA250A128A11F6
:100338007508803AFF0080307F02031DA52902302E
:100348007402031CA829A929502A831203135208EE
:10035800F5005108F4000A128A11FA250A128A11C6
:100368007418B729B829502A831203135208803AFF
:10037800FF0080307F02031DC32901305102031C96
:10038800C629C7290C2A831203134208803AFF00A2
:1003980080307F02031DD22932304102031CD52947
:1003A800D629DD29831203134208AA004108A900AF
:1003B800E329831203134008AA003F08A900440850
:1003C800803AFF0080307F02031DEC290A30430287
:1003D800031CEF29F029F729831203134408AC0002
:1003E8004308AB00FD29831203134008AC003F0803
:1003F800AB002C08A1002B08A0002A08A30029089C
:10040800A20009300A128A110D260A128A11502AEE
:10041800831203134208803AFF0080307F02031DD5
:10042800172A32304102031C1A2A1B2A222A831255
:1004380003134208AE004108AD00282A83120313B3
:100448004008AE003F08AD004408803AFF00803005
:100458007F02031D312A0A304302031C342A352A3D
:100468003C2A831203134408B0004308AF00422A11
:10047800831203134008B0003F08AF003008A10002
:100488002F08A0002E08A3002D08A20006300A128B
:100498008A110D260A128A11831203135208F500D5
:1004A8005108F4000A128A11FA250A128A117508ED
:1004B800803AFF0080307F02031D642A02307402F4
:1004C800031C672A682A102B831203135208F500AD
:1004D8005108F4000A128A11FA250A128A11741CAA
:1004E800762A772A102B831203135208803AFF00CA
:1004F80080307F02031D822A01305102031C852AA5
:10050800862ACB2A831203134208803AFF008030E0
:100518007F02031D912A1E304102031C942A952A4A
:100528009C2A831203134208B2004108B100A22A90
:10053800831203134008B2003F08B1004408803A10
:10054800FF0080307F02031DAB2A1E304302031CCC
:10055800AE2AAF2AB62A831203134408B40043080C
:10056800B300BC2A831203134008B4003F08B30049
:100578003408A1003308A0003208A3003108A20003
:1005880009300A128A110D260A128A111F2B8312AA
:1005980003134208803AFF0080307F02031DD62AE9
:1005A8001E304102031CD92ADA2AE12A83120313D6
:1005B8004208B6004108B500E72A83120313400831
:1005C800B6003F08B5004408803AFF0080307F023B
:1005D800031DF02A1E304302031CF32AF42AFB2AC7
:1005E800831203134408B8004308B700012B831291
:1005F80003134008B8003F08B7003808A1003708BF
:10060800A0003608A3003508A20006300A128A1195
:100618000D260A128A111F2B831203134208A10008
:100628004108A0004408A3004308A2000A128A1146
:100638001D260A128A1108008316031788018901EA
:10064800FF30831603138600F0308800F8308700E7
:1006580089018312031386018801FF300A128A1167
:10066800E3250A128A110A128A1134260A128A11FB
:10067800831203138901081E422B432B612B8230FE
:1006880083120313C600DD30C500C50B492BC60B0A
:10069800492B83120313081E522B532B942BF8015A
:1006A800F9010030A000A1000030A200A3000A1246
:1006B8008A111D260A128A11942B081F642B652B98
:1006C800792B823083120313C600DD30C500C50BB9
:1006D8006B2BC60B6B2B83120313081F742B752B04
:1006E800942BF8010130F900942B881E7C2B7D2B6C
:1006F800942B823083120313C600DD30C500C50B6E
:10070800832BC60B832B83120313881E8C2B8D2BF4
:10071800942B0130F800F901881A932B942B902B15
:100728007803031D982B992B7C2C7908031D9D2B8E
:100738009E2B7C2C0A128A118A240A128A110A1208
:100748008A1125200A128A1183120313081EAD2B61
:10075800AE2B9E2B823083120313C600DD30C500FA
:10076800C50BB42BC60BB42B83120313081EBD2B69
:10077800BE2B9E2BF801F9010030A000A10000302B
:10078800A200A3000A128A111D260A128A117C2CC3
:1007980083120313871DD12BD22BF12B82308312A6
:1007A8000313C600DD30C500C50BD82BC60BD82BEC
:1007B80083120313871DE12BE22B7C2C9630A000BB
:1007C8000030A1009630A2000030A30005300A12C4
:1007D8008A110D260A128A117C2C071EF42BF52B80
:1007E800142C823083120313C600DD30C500C50BFC
:1007F800FB2BC60BFB2B83120313071E042C052CA3
:100808007C2C9630A0000030A1009630A200003069
:10081800A3000A300A128A110D260A128A117C2CAA
:10082800871E172C182C372C823083120313C6000E
:10083800DD30C500C50B1E2CC60B1E2C83120313FE
:10084800871E272C282C7C2C9630A0000030A10075
:100858009630A2000030A30009300A128A110D2632
:100868000A128A117C2C071F3A2C3B2C5A2C8230F6
:1008780083120313C600DD30C500C50B412CC60B1F
:10088800412C83120313071F4A2C4B2C7C2C9630C7
:10089800A0000030A1009630A2000030A30006306E
:1008A8000A128A110D260A128A117C2C081E5D2C48
:1008B8005E2C7C2C823083120313C600DD30C50009
:1008C800C50B642CC60B642C83120313081E6D2CF5
:1008D8006E2C7C2CF801F9010030A000A10000303A
:1008E800A200A3000A128A111D260A128A113C2BA3
:1008F8007808031D802C812C3C2B79030319852C47
:10090800862CCC2B3C2B0A128A110C28F401F501F9
:1009180083120313861D912C922CA32C061D952C53
:10092800962CA32C081C992C9A2CA32C0730D100A8
:100938000030D2000130F4000030F500602D861D33
:10094800A62CA72CB82C061DAA2CAB2CB82C881EBC
:10095800AE2CAF2CB82CF930D100FF30D2000130CA
:10096800F4000030F500602D861EBB2CBC2CC52C75
:10097800FB30D100FF30D2000130F4000030F50028
:10098800602D061CC82CC92CD22C0530D100003093
:10099800D2000130F4000030F500602D061ED52C81
:1009A800D62CDF2CFC30D100FF30D2000130F4000F
:1009B8000030F500602D861CE22CE32CEC2C043072
:1009C800D1000030D2000130F4000030F500602D75
:1009D800061EEF2CF02CFD2C861DF32CF42CFD2C80
:1009E800FE30D100FF30D2000130F4000030F500B5
:1009F800602D061D002D012D0E2D861C042D052DA4
:100A08000E2D0230D1000030D2000130F400003049
:100A1800F500602D861D112D122D1B2DFF30D100E4
:100A2800FF30D2000130F4000030F500602D061DC3
:100A38001E2D1F2D282D0130D1000030D20001308D
:100A4800F4000030F500602D061E2B2D2C2D3D2DB9
:100A5800861D2F2D302D3D2D061D332D342D3D2D7A
:100A6800FD30D100FF30D2000130F4000030F50035
:100A7800602D861C402D412D522D861D442D452D5F
:100A8800522D061D482D492D522D0330D10000301E
:100A9800D2000130F4000030F500602D861D552D80
:100AA800562D602D061D592D5A2D602DD101D201CC
:100AB8000130F4000030F500740875040319652D41
:100AC800662D6D2D5208CA005108C900C701C8011A
:100AD800772D4A08D2004908D1000130C70703180A
:100AE800C80A0030C8070800F401F501831203138F
:100AF800201C7F2D802D862D2208F4070318F50A67
:100B08002308F50701300310A20DA30DFF3E031DB6
:100B1800872D01300310A10CA00CFF3E031D8E2D64
:100B280020082104031D992D9A2D7A2D7508A100FE
:100B38007408A00008008B1DA22DA32DBC2D0B1C32
:100B4800A62DA72DBC2D8312031306084039F000EB
:100B5800F1017008F6007108F70040307606770456
:100B6800031DB72DB82DBB2DF801F90109140B1081
:100B780073088A00720E8300FE0E7E0E0900750847
:100B8800803AFF0081307F02031DCC2D00307402B3
:100B9800031CCF2DD02DD22DFF30E22D7508803AC1
:100BA800FF0080307F02031DDB2D0A30740203181A
:100BB800DE2DDF2DE12D0030E22D74080800F40051
:100BC80074088316031392000C30831203139D00DC
:100BD8000C30970083160313871007118312031331
:100BE80095019B019101043092000800F51BFD2D31
:100BF800FE2DFF2D0C2E740983120313A000750916
:100C0800A100A00A0319A10A2008F4002108F50090
:100C1800080083120313A400F03088052408880410
:100C28002208F40020080A128A112C260A128A11B6
:100C38000800F03083120313880505308804220861
:100C4800F40020080A128A112C260A128A110800B8
:100C5800F500750883120313950074089B000800BB
:100C68000B108B158B17073083160313960008009B
:04400E00222FFF3F1F
:00000001FF
